{
  "contractName": "StarNotary",
  "abi": [
    {
      "inputs": [],
      "stateMutability": "nonpayable",
      "type": "constructor"
    },
    {
      "anonymous": false,
      "inputs": [
        {
          "indexed": true,
          "internalType": "address",
          "name": "owner",
          "type": "address"
        },
        {
          "indexed": true,
          "internalType": "address",
          "name": "approved",
          "type": "address"
        },
        {
          "indexed": true,
          "internalType": "uint256",
          "name": "tokenId",
          "type": "uint256"
        }
      ],
      "name": "Approval",
      "type": "event"
    },
    {
      "anonymous": false,
      "inputs": [
        {
          "indexed": true,
          "internalType": "address",
          "name": "owner",
          "type": "address"
        },
        {
          "indexed": true,
          "internalType": "address",
          "name": "operator",
          "type": "address"
        },
        {
          "indexed": false,
          "internalType": "bool",
          "name": "approved",
          "type": "bool"
        }
      ],
      "name": "ApprovalForAll",
      "type": "event"
    },
    {
      "anonymous": false,
      "inputs": [
        {
          "indexed": true,
          "internalType": "address",
          "name": "from",
          "type": "address"
        },
        {
          "indexed": true,
          "internalType": "address",
          "name": "to",
          "type": "address"
        },
        {
          "indexed": true,
          "internalType": "uint256",
          "name": "tokenId",
          "type": "uint256"
        }
      ],
      "name": "Transfer",
      "type": "event"
    },
    {
      "inputs": [
        {
          "internalType": "address",
          "name": "to",
          "type": "address"
        },
        {
          "internalType": "uint256",
          "name": "tokenId",
          "type": "uint256"
        }
      ],
      "name": "approve",
      "outputs": [],
      "stateMutability": "nonpayable",
      "type": "function"
    },
    {
      "inputs": [
        {
          "internalType": "address",
          "name": "owner",
          "type": "address"
        }
      ],
      "name": "balanceOf",
      "outputs": [
        {
          "internalType": "uint256",
          "name": "",
          "type": "uint256"
        }
      ],
      "stateMutability": "view",
      "type": "function",
      "constant": true
    },
    {
      "inputs": [
        {
          "internalType": "uint256",
          "name": "tokenId",
          "type": "uint256"
        }
      ],
      "name": "getApproved",
      "outputs": [
        {
          "internalType": "address",
          "name": "",
          "type": "address"
        }
      ],
      "stateMutability": "view",
      "type": "function",
      "constant": true
    },
    {
      "inputs": [
        {
          "internalType": "address",
          "name": "owner",
          "type": "address"
        },
        {
          "internalType": "address",
          "name": "operator",
          "type": "address"
        }
      ],
      "name": "isApprovedForAll",
      "outputs": [
        {
          "internalType": "bool",
          "name": "",
          "type": "bool"
        }
      ],
      "stateMutability": "view",
      "type": "function",
      "constant": true
    },
    {
      "inputs": [],
      "name": "name",
      "outputs": [
        {
          "internalType": "string",
          "name": "",
          "type": "string"
        }
      ],
      "stateMutability": "view",
      "type": "function",
      "constant": true
    },
    {
      "inputs": [
        {
          "internalType": "uint256",
          "name": "tokenId",
          "type": "uint256"
        }
      ],
      "name": "ownerOf",
      "outputs": [
        {
          "internalType": "address",
          "name": "",
          "type": "address"
        }
      ],
      "stateMutability": "view",
      "type": "function",
      "constant": true
    },
    {
      "inputs": [
        {
          "internalType": "address",
          "name": "from",
          "type": "address"
        },
        {
          "internalType": "address",
          "name": "to",
          "type": "address"
        },
        {
          "internalType": "uint256",
          "name": "tokenId",
          "type": "uint256"
        }
      ],
      "name": "safeTransferFrom",
      "outputs": [],
      "stateMutability": "nonpayable",
      "type": "function"
    },
    {
      "inputs": [
        {
          "internalType": "address",
          "name": "from",
          "type": "address"
        },
        {
          "internalType": "address",
          "name": "to",
          "type": "address"
        },
        {
          "internalType": "uint256",
          "name": "tokenId",
          "type": "uint256"
        },
        {
          "internalType": "bytes",
          "name": "_data",
          "type": "bytes"
        }
      ],
      "name": "safeTransferFrom",
      "outputs": [],
      "stateMutability": "nonpayable",
      "type": "function"
    },
    {
      "inputs": [
        {
          "internalType": "address",
          "name": "operator",
          "type": "address"
        },
        {
          "internalType": "bool",
          "name": "approved",
          "type": "bool"
        }
      ],
      "name": "setApprovalForAll",
      "outputs": [],
      "stateMutability": "nonpayable",
      "type": "function"
    },
    {
      "inputs": [
        {
          "internalType": "uint256",
          "name": "",
          "type": "uint256"
        }
      ],
      "name": "starsForSale",
      "outputs": [
        {
          "internalType": "uint256",
          "name": "",
          "type": "uint256"
        }
      ],
      "stateMutability": "view",
      "type": "function",
      "constant": true
    },
    {
      "inputs": [
        {
          "internalType": "bytes4",
          "name": "interfaceId",
          "type": "bytes4"
        }
      ],
      "name": "supportsInterface",
      "outputs": [
        {
          "internalType": "bool",
          "name": "",
          "type": "bool"
        }
      ],
      "stateMutability": "view",
      "type": "function",
      "constant": true
    },
    {
      "inputs": [],
      "name": "symbol",
      "outputs": [
        {
          "internalType": "string",
          "name": "",
          "type": "string"
        }
      ],
      "stateMutability": "view",
      "type": "function",
      "constant": true
    },
    {
      "inputs": [],
      "name": "symbolName",
      "outputs": [
        {
          "internalType": "string",
          "name": "",
          "type": "string"
        }
      ],
      "stateMutability": "view",
      "type": "function",
      "constant": true
    },
    {
      "inputs": [
        {
          "internalType": "uint256",
          "name": "",
          "type": "uint256"
        }
      ],
      "name": "tokenIdToStarInfo",
      "outputs": [
        {
          "internalType": "string",
          "name": "name",
          "type": "string"
        }
      ],
      "stateMutability": "view",
      "type": "function",
      "constant": true
    },
    {
      "inputs": [],
      "name": "tokenName",
      "outputs": [
        {
          "internalType": "string",
          "name": "",
          "type": "string"
        }
      ],
      "stateMutability": "view",
      "type": "function",
      "constant": true
    },
    {
      "inputs": [
        {
          "internalType": "uint256",
          "name": "tokenId",
          "type": "uint256"
        }
      ],
      "name": "tokenURI",
      "outputs": [
        {
          "internalType": "string",
          "name": "",
          "type": "string"
        }
      ],
      "stateMutability": "view",
      "type": "function",
      "constant": true
    },
    {
      "inputs": [
        {
          "internalType": "address",
          "name": "from",
          "type": "address"
        },
        {
          "internalType": "address",
          "name": "to",
          "type": "address"
        },
        {
          "internalType": "uint256",
          "name": "tokenId",
          "type": "uint256"
        }
      ],
      "name": "transferFrom",
      "outputs": [],
      "stateMutability": "nonpayable",
      "type": "function"
    },
    {
      "inputs": [
        {
          "internalType": "string",
          "name": "_name",
          "type": "string"
        },
        {
          "internalType": "uint256",
          "name": "_tokenId",
          "type": "uint256"
        }
      ],
      "name": "createStar",
      "outputs": [],
      "stateMutability": "nonpayable",
      "type": "function"
    },
    {
      "inputs": [
        {
          "internalType": "uint256",
          "name": "_tokenId",
          "type": "uint256"
        },
        {
          "internalType": "uint256",
          "name": "_price",
          "type": "uint256"
        }
      ],
      "name": "putStarUpForSale",
      "outputs": [],
      "stateMutability": "nonpayable",
      "type": "function"
    },
    {
      "inputs": [
        {
          "internalType": "uint256",
          "name": "_tokenId",
          "type": "uint256"
        }
      ],
      "name": "buyStar",
      "outputs": [],
      "stateMutability": "payable",
      "type": "function",
      "payable": true
    },
    {
      "inputs": [
        {
          "internalType": "uint256",
          "name": "_tokenId",
          "type": "uint256"
        }
      ],
      "name": "lookUptokenIdToStarInfo",
      "outputs": [
        {
          "internalType": "string",
          "name": "",
          "type": "string"
        }
      ],
      "stateMutability": "view",
      "type": "function",
      "constant": true
    },
    {
      "inputs": [
        {
          "internalType": "uint256",
          "name": "_tokenId1",
          "type": "uint256"
        },
        {
          "internalType": "uint256",
          "name": "_tokenId2",
          "type": "uint256"
        }
      ],
      "name": "exchangeStars",
      "outputs": [],
      "stateMutability": "nonpayable",
      "type": "function"
    },
    {
      "inputs": [
        {
          "internalType": "address",
          "name": "_to1",
          "type": "address"
        },
        {
          "internalType": "uint256",
          "name": "_tokenId",
          "type": "uint256"
        }
      ],
      "name": "transferStar",
      "outputs": [],
      "stateMutability": "nonpayable",
      "type": "function"
    }
  ],
  "bytecode": "0x60806040526040518060400160405280601181526020017f5269636520466f722045766572796f6e6500000000000000000000000000000081525060069080519060200190620000519291906200020e565b506040518060400160405280600381526020017f5246450000000000000000000000000000000000000000000000000000000000815250600790805190602001906200009f9291906200020e565b50348015620000ad57600080fd5b5060068054620000bd90620002be565b80601f0160208091040260200160405190810160405280929190818152602001828054620000eb90620002be565b80156200013c5780601f1062000110576101008083540402835291602001916200013c565b820191906000526020600020905b8154815290600101906020018083116200011e57829003601f168201915b5050505050600780546200015090620002be565b80601f01602080910402602001604051908101604052809291908181526020018280546200017e90620002be565b8015620001cf5780601f10620001a357610100808354040283529160200191620001cf565b820191906000526020600020905b815481529060010190602001808311620001b157829003601f168201915b50505050508160009080519060200190620001ec9291906200020e565b508060019080519060200190620002059291906200020e565b50505062000323565b8280546200021c90620002be565b90600052602060002090601f0160209004810192826200024057600085556200028c565b82601f106200025b57805160ff19168380011785556200028c565b828001600101855582156200028c579182015b828111156200028b5782518255916020019190600101906200026e565b5b5090506200029b91906200029f565b5090565b5b80821115620002ba576000816000905550600101620002a0565b5090565b60006002820490506001821680620002d757607f821691505b60208210811415620002ee57620002ed620002f4565b5b50919050565b7f4e487b7100000000000000000000000000000000000000000000000000000000600052602260045260246000fd5b6134cc80620003336000396000f3fe6080604052600436106101405760003560e01c80636352211e116100b6578063a22cb4651161006f578063a22cb46514610471578063b88d4fde1461049a578063c87b56dd146104c3578063d7830ccb14610500578063e7152a5c1461053d578063e985e9c51461056657610140565b80636352211e1461034d5780636c02a9311461038a57806370a08231146103b55780638e3e33a0146103f257806395d89b411461041d5780639697c0a11461044857610140565b806315e0afa51161010857806315e0afa5146102505780631967fd981461027957806323b872dd146102b65780632f1c34ef146102df578063316a4361146102fb57806342842e0e1461032457610140565b806301ffc9a7146101455780630564b1301461018257806306fdde03146101bf578063081812fc146101ea578063095ea7b314610227575b600080fd5b34801561015157600080fd5b5061016c6004803603810190610167919061235f565b6105a3565b6040516101799190612881565b60405180910390f35b34801561018e57600080fd5b506101a960048036038101906101a49190612405565b610685565b6040516101b69190612b3e565b60405180910390f35b3480156101cb57600080fd5b506101d461069d565b6040516101e1919061289c565b60405180910390f35b3480156101f657600080fd5b50610211600480360381019061020c9190612405565b61072f565b60405161021e919061281a565b60405180910390f35b34801561023357600080fd5b5061024e60048036038101906102499190612323565b6107b4565b005b34801561025c57600080fd5b506102776004803603810190610272919061242e565b6108cc565b005b34801561028557600080fd5b506102a0600480360381019061029b9190612405565b6109ba565b6040516102ad919061289c565b60405180910390f35b3480156102c257600080fd5b506102dd60048036038101906102d8919061221d565b610a60565b005b6102f960048036038101906102f49190612405565b610ac0565b005b34801561030757600080fd5b50610322600480360381019061031d919061242e565b610c45565b005b34801561033057600080fd5b5061034b6004803603810190610346919061221d565b610d5d565b005b34801561035957600080fd5b50610374600480360381019061036f9190612405565b610d7d565b604051610381919061281a565b60405180910390f35b34801561039657600080fd5b5061039f610e2f565b6040516103ac919061289c565b60405180910390f35b3480156103c157600080fd5b506103dc60048036038101906103d791906121b8565b610ebd565b6040516103e99190612b3e565b60405180910390f35b3480156103fe57600080fd5b50610407610f75565b604051610414919061289c565b60405180910390f35b34801561042957600080fd5b50610432611003565b60405161043f919061289c565b60405180910390f35b34801561045457600080fd5b5061046f600480360381019061046a91906123b1565b611095565b005b34801561047d57600080fd5b50610498600480360381019061049391906122e7565b6110eb565b005b3480156104a657600080fd5b506104c160048036038101906104bc919061226c565b611101565b005b3480156104cf57600080fd5b506104ea60048036038101906104e59190612405565b611163565b6040516104f7919061289c565b60405180910390f35b34801561050c57600080fd5b5061052760048036038101906105229190612405565b61120a565b604051610534919061289c565b60405180910390f35b34801561054957600080fd5b50610564600480360381019061055f9190612323565b6112b2565b005b34801561057257600080fd5b5061058d600480360381019061058891906121e1565b611337565b60405161059a9190612881565b60405180910390f35b60007f80ac58cd000000000000000000000000000000000000000000000000000000007bffffffffffffffffffffffffffffffffffffffffffffffffffffffff1916827bffffffffffffffffffffffffffffffffffffffffffffffffffffffff1916148061066e57507f5b5e139f000000000000000000000000000000000000000000000000000000007bffffffffffffffffffffffffffffffffffffffffffffffffffffffff1916827bffffffffffffffffffffffffffffffffffffffffffffffffffffffff1916145b8061067e575061067d826113cb565b5b9050919050565b60096020528060005260406000206000915090505481565b6060600080546106ac90612d94565b80601f01602080910402602001604051908101604052809291908181526020018280546106d890612d94565b80156107255780601f106106fa57610100808354040283529160200191610725565b820191906000526020600020905b81548152906001019060200180831161070857829003601f168201915b5050505050905090565b600061073a82611435565b610779576040517f08c379a000000000000000000000000000000000000000000000000000000000815260040161077090612a5e565b60405180910390fd5b6004600083815260200190815260200160002060009054906101000a900473ffffffffffffffffffffffffffffffffffffffff169050919050565b60006107bf82610d7d565b90508073ffffffffffffffffffffffffffffffffffffffff168373ffffffffffffffffffffffffffffffffffffffff161415610830576040517f08c379a000000000000000000000000000000000000000000000000000000000815260040161082790612abe565b60405180910390fd5b8073ffffffffffffffffffffffffffffffffffffffff1661084f6114a1565b73ffffffffffffffffffffffffffffffffffffffff16148061087e575061087d816108786114a1565b611337565b5b6108bd576040517f08c379a00000000000000000000000000000000000000000000000000000000081526004016108b4906129be565b60405180910390fd5b6108c783836114a9565b505050565b6108d582610d7d565b73ffffffffffffffffffffffffffffffffffffffff163373ffffffffffffffffffffffffffffffffffffffff161480610941575061091281610d7d565b73ffffffffffffffffffffffffffffffffffffffff163373ffffffffffffffffffffffffffffffffffffffff16145b610980576040517f08c379a000000000000000000000000000000000000000000000000000000000815260040161097790612a1e565b60405180910390fd5b61099b61098c83610d7d565b61099583610d7d565b84610a60565b6109b66109a782610d7d565b6109b084610d7d565b83610a60565b5050565b60086020528060005260406000206000915090508060000180546109dd90612d94565b80601f0160208091040260200160405190810160405280929190818152602001828054610a0990612d94565b8015610a565780601f10610a2b57610100808354040283529160200191610a56565b820191906000526020600020905b815481529060010190602001808311610a3957829003601f168201915b5050505050905081565b610a71610a6b6114a1565b82611562565b610ab0576040517f08c379a0000000000000000000000000000000000000000000000000000000008152600401610aa790612b1e565b60405180910390fd5b610abb838383611640565b505050565b6000600960008381526020019081526020016000205411610b16576040517f08c379a0000000000000000000000000000000000000000000000000000000008152600401610b0d90612afe565b60405180910390fd5b6000600960008381526020019081526020016000205490506000610b3983610d7d565b9050813411610b7d576040517f08c379a0000000000000000000000000000000000000000000000000000000008152600401610b7490612a9e565b60405180910390fd5b610b88813385610a60565b6000610b93826118a7565b90508073ffffffffffffffffffffffffffffffffffffffff166108fc849081150290604051600060405180830381858888f19350505050158015610bdb573d6000803e3d6000fd5b5082341115610c3f57610bed336118a7565b73ffffffffffffffffffffffffffffffffffffffff166108fc8434610c129190612caa565b9081150290604051600060405180830381858888f19350505050158015610c3d573d6000803e3d6000fd5b505b50505050565b60008211610c88576040517f08c379a0000000000000000000000000000000000000000000000000000000008152600401610c7f906128de565b60405180910390fd5b60008111610ccb576040517f08c379a0000000000000000000000000000000000000000000000000000000008152600401610cc290612ade565b60405180910390fd5b3373ffffffffffffffffffffffffffffffffffffffff16610ceb83610d7d565b73ffffffffffffffffffffffffffffffffffffffff1614610d41576040517f08c379a0000000000000000000000000000000000000000000000000000000008152600401610d38906128be565b60405180910390fd5b8060096000848152602001908152602001600020819055505050565b610d7883838360405180602001604052806000815250611101565b505050565b6000806002600084815260200190815260200160002060009054906101000a900473ffffffffffffffffffffffffffffffffffffffff169050600073ffffffffffffffffffffffffffffffffffffffff168173ffffffffffffffffffffffffffffffffffffffff161415610e26576040517f08c379a0000000000000000000000000000000000000000000000000000000008152600401610e1d906129fe565b60405180910390fd5b80915050919050565b60068054610e3c90612d94565b80601f0160208091040260200160405190810160405280929190818152602001828054610e6890612d94565b8015610eb55780601f10610e8a57610100808354040283529160200191610eb5565b820191906000526020600020905b815481529060010190602001808311610e9857829003601f168201915b505050505081565b60008073ffffffffffffffffffffffffffffffffffffffff168273ffffffffffffffffffffffffffffffffffffffff161415610f2e576040517f08c379a0000000000000000000000000000000000000000000000000000000008152600401610f25906129de565b60405180910390fd5b600360008373ffffffffffffffffffffffffffffffffffffffff1673ffffffffffffffffffffffffffffffffffffffff168152602001908152602001600020549050919050565b60078054610f8290612d94565b80601f0160208091040260200160405190810160405280929190818152602001828054610fae90612d94565b8015610ffb5780601f10610fd057610100808354040283529160200191610ffb565b820191906000526020600020905b815481529060010190602001808311610fde57829003601f168201915b505050505081565b60606001805461101290612d94565b80601f016020809104026020016040519081016040528092919081815260200182805461103e90612d94565b801561108b5780601f106110605761010080835404028352916020019161108b565b820191906000526020600020905b81548152906001019060200180831161106e57829003601f168201915b5050505050905090565b60006040518060200160405280848152509050806008600084815260200190815260200160002060008201518160000190805190602001906110d8929190611fdc565b509050506110e633836118b1565b505050565b6110fd6110f66114a1565b8383611a8b565b5050565b61111261110c6114a1565b83611562565b611151576040517f08c379a000000000000000000000000000000000000000000000000000000000815260040161114890612b1e565b60405180910390fd5b61115d84848484611bf8565b50505050565b606061116e82611435565b6111ad576040517f08c379a00000000000000000000000000000000000000000000000000000000081526004016111a490612a7e565b60405180910390fd5b60006111b7611c54565b905060008151116111d75760405180602001604052806000815250611202565b806111e184611c6b565b6040516020016111f29291906127f6565b6040516020818303038152906040525b915050919050565b606060086000838152602001908152602001600020600001805461122d90612d94565b80601f016020809104026020016040519081016040528092919081815260200182805461125990612d94565b80156112a65780601f1061127b576101008083540402835291602001916112a6565b820191906000526020600020905b81548152906001019060200180831161128957829003601f168201915b50505050509050919050565b6112bb81610d7d565b73ffffffffffffffffffffffffffffffffffffffff163373ffffffffffffffffffffffffffffffffffffffff1614611328576040517f08c379a000000000000000000000000000000000000000000000000000000000815260040161131f90612a1e565b60405180910390fd5b611333338383610a60565b5050565b6000600560008473ffffffffffffffffffffffffffffffffffffffff1673ffffffffffffffffffffffffffffffffffffffff16815260200190815260200160002060008373ffffffffffffffffffffffffffffffffffffffff1673ffffffffffffffffffffffffffffffffffffffff16815260200190815260200160002060009054906101000a900460ff16905092915050565b60007f01ffc9a7000000000000000000000000000000000000000000000000000000007bffffffffffffffffffffffffffffffffffffffffffffffffffffffff1916827bffffffffffffffffffffffffffffffffffffffffffffffffffffffff1916149050919050565b60008073ffffffffffffffffffffffffffffffffffffffff166002600084815260200190815260200160002060009054906101000a900473ffffffffffffffffffffffffffffffffffffffff1673ffffffffffffffffffffffffffffffffffffffff1614159050919050565b600033905090565b816004600083815260200190815260200160002060006101000a81548173ffffffffffffffffffffffffffffffffffffffff021916908373ffffffffffffffffffffffffffffffffffffffff160217905550808273ffffffffffffffffffffffffffffffffffffffff1661151c83610d7d565b73ffffffffffffffffffffffffffffffffffffffff167f8c5be1e5ebec7d5bd14f71427d1e84f3dd0314c0f7b2291e5b200ac8c7c3b92560405160405180910390a45050565b600061156d82611435565b6115ac576040517f08c379a00000000000000000000000000000000000000000000000000000000081526004016115a39061299e565b60405180910390fd5b60006115b783610d7d565b90508073ffffffffffffffffffffffffffffffffffffffff168473ffffffffffffffffffffffffffffffffffffffff1614806115f957506115f88185611337565b5b8061163757508373ffffffffffffffffffffffffffffffffffffffff1661161f8461072f565b73ffffffffffffffffffffffffffffffffffffffff16145b91505092915050565b8273ffffffffffffffffffffffffffffffffffffffff1661166082610d7d565b73ffffffffffffffffffffffffffffffffffffffff16146116b6576040517f08c379a00000000000000000000000000000000000000000000000000000000081526004016116ad9061291e565b60405180910390fd5b600073ffffffffffffffffffffffffffffffffffffffff168273ffffffffffffffffffffffffffffffffffffffff161415611726576040517f08c379a000000000000000000000000000000000000000000000000000000000815260040161171d9061295e565b60405180910390fd5b611731838383611e18565b61173c6000826114a9565b6001600360008573ffffffffffffffffffffffffffffffffffffffff1673ffffffffffffffffffffffffffffffffffffffff168152602001908152602001600020600082825461178c9190612caa565b925050819055506001600360008473ffffffffffffffffffffffffffffffffffffffff1673ffffffffffffffffffffffffffffffffffffffff16815260200190815260200160002060008282546117e39190612c23565b92505081905550816002600083815260200190815260200160002060006101000a81548173ffffffffffffffffffffffffffffffffffffffff021916908373ffffffffffffffffffffffffffffffffffffffff160217905550808273ffffffffffffffffffffffffffffffffffffffff168473ffffffffffffffffffffffffffffffffffffffff167fddf252ad1be2c89b69c2b068fc378daa952ba7f163c4a11628f55a4df523b3ef60405160405180910390a46118a2838383611e1d565b505050565b6000819050919050565b600073ffffffffffffffffffffffffffffffffffffffff168273ffffffffffffffffffffffffffffffffffffffff161415611921576040517f08c379a000000000000000000000000000000000000000000000000000000000815260040161191890612a3e565b60405180910390fd5b61192a81611435565b1561196a576040517f08c379a00000000000000000000000000000000000000000000000000000000081526004016119619061293e565b60405180910390fd5b61197660008383611e18565b6001600360008473ffffffffffffffffffffffffffffffffffffffff1673ffffffffffffffffffffffffffffffffffffffff16815260200190815260200160002060008282546119c69190612c23565b92505081905550816002600083815260200190815260200160002060006101000a81548173ffffffffffffffffffffffffffffffffffffffff021916908373ffffffffffffffffffffffffffffffffffffffff160217905550808273ffffffffffffffffffffffffffffffffffffffff16600073ffffffffffffffffffffffffffffffffffffffff167fddf252ad1be2c89b69c2b068fc378daa952ba7f163c4a11628f55a4df523b3ef60405160405180910390a4611a8760008383611e1d565b5050565b8173ffffffffffffffffffffffffffffffffffffffff168373ffffffffffffffffffffffffffffffffffffffff161415611afa576040517f08c379a0000000000000000000000000000000000000000000000000000000008152600401611af19061297e565b60405180910390fd5b80600560008573ffffffffffffffffffffffffffffffffffffffff1673ffffffffffffffffffffffffffffffffffffffff16815260200190815260200160002060008473ffffffffffffffffffffffffffffffffffffffff1673ffffffffffffffffffffffffffffffffffffffff16815260200190815260200160002060006101000a81548160ff0219169083151502179055508173ffffffffffffffffffffffffffffffffffffffff168373ffffffffffffffffffffffffffffffffffffffff167f17307eab39ab6107e8899845ad3d59bd9653f200f220920489ca2b5937696c3183604051611beb9190612881565b60405180910390a3505050565b611c03848484611640565b611c0f84848484611e22565b611c4e576040517f08c379a0000000000000000000000000000000000000000000000000000000008152600401611c45906128fe565b60405180910390fd5b50505050565b606060405180602001604052806000815250905090565b60606000821415611cb3576040518060400160405280600181526020017f30000000000000000000000000000000000000000000000000000000000000008152509050611e13565b600082905060005b60008214611ce5578080611cce90612df7565b915050600a82611cde9190612c79565b9150611cbb565b60008167ffffffffffffffff811115611d27577f4e487b7100000000000000000000000000000000000000000000000000000000600052604160045260246000fd5b6040519080825280601f01601f191660200182016040528015611d595781602001600182028036833780820191505090505b5090505b60008514611e0c57600182611d729190612caa565b9150600a85611d819190612e40565b6030611d8d9190612c23565b60f81b818381518110611dc9577f4e487b7100000000000000000000000000000000000000000000000000000000600052603260045260246000fd5b60200101907effffffffffffffffffffffffffffffffffffffffffffffffffffffffffffff1916908160001a905350600a85611e059190612c79565b9450611d5d565b8093505050505b919050565b505050565b505050565b6000611e438473ffffffffffffffffffffffffffffffffffffffff16611fb9565b15611fac578373ffffffffffffffffffffffffffffffffffffffff1663150b7a02611e6c6114a1565b8786866040518563ffffffff1660e01b8152600401611e8e9493929190612835565b602060405180830381600087803b158015611ea857600080fd5b505af1925050508015611ed957506040513d601f19601f82011682018060405250810190611ed69190612388565b60015b611f5c573d8060008114611f09576040519150601f19603f3d011682016040523d82523d6000602084013e611f0e565b606091505b50600081511415611f54576040517f08c379a0000000000000000000000000000000000000000000000000000000008152600401611f4b906128fe565b60405180910390fd5b805181602001fd5b63150b7a0260e01b7bffffffffffffffffffffffffffffffffffffffffffffffffffffffff1916817bffffffffffffffffffffffffffffffffffffffffffffffffffffffff191614915050611fb1565b600190505b949350505050565b6000808273ffffffffffffffffffffffffffffffffffffffff163b119050919050565b828054611fe890612d94565b90600052602060002090601f01602090048101928261200a5760008555612051565b82601f1061202357805160ff1916838001178555612051565b82800160010185558215612051579182015b82811115612050578251825591602001919060010190612035565b5b50905061205e9190612062565b5090565b5b8082111561207b576000816000905550600101612063565b5090565b600061209261208d84612b7e565b612b59565b9050828152602081018484840111156120aa57600080fd5b6120b5848285612d52565b509392505050565b60006120d06120cb84612baf565b612b59565b9050828152602081018484840111156120e857600080fd5b6120f3848285612d52565b509392505050565b60008135905061210a8161343a565b92915050565b60008135905061211f81613451565b92915050565b60008135905061213481613468565b92915050565b60008151905061214981613468565b92915050565b600082601f83011261216057600080fd5b813561217084826020860161207f565b91505092915050565b600082601f83011261218a57600080fd5b813561219a8482602086016120bd565b91505092915050565b6000813590506121b28161347f565b92915050565b6000602082840312156121ca57600080fd5b60006121d8848285016120fb565b91505092915050565b600080604083850312156121f457600080fd5b6000612202858286016120fb565b9250506020612213858286016120fb565b9150509250929050565b60008060006060848603121561223257600080fd5b6000612240868287016120fb565b9350506020612251868287016120fb565b9250506040612262868287016121a3565b9150509250925092565b6000806000806080858703121561228257600080fd5b6000612290878288016120fb565b94505060206122a1878288016120fb565b93505060406122b2878288016121a3565b925050606085013567ffffffffffffffff8111156122cf57600080fd5b6122db8782880161214f565b91505092959194509250565b600080604083850312156122fa57600080fd5b6000612308858286016120fb565b925050602061231985828601612110565b9150509250929050565b6000806040838503121561233657600080fd5b6000612344858286016120fb565b9250506020612355858286016121a3565b9150509250929050565b60006020828403121561237157600080fd5b600061237f84828501612125565b91505092915050565b60006020828403121561239a57600080fd5b60006123a88482850161213a565b91505092915050565b600080604083850312156123c457600080fd5b600083013567ffffffffffffffff8111156123de57600080fd5b6123ea85828601612179565b92505060206123fb858286016121a3565b9150509250929050565b60006020828403121561241757600080fd5b6000612425848285016121a3565b91505092915050565b6000806040838503121561244157600080fd5b600061244f858286016121a3565b9250506020612460858286016121a3565b9150509250929050565b61247381612cde565b82525050565b61248281612cf0565b82525050565b600061249382612be0565b61249d8185612bf6565b93506124ad818560208601612d61565b6124b681612f2d565b840191505092915050565b60006124cc82612beb565b6124d68185612c07565b93506124e6818560208601612d61565b6124ef81612f2d565b840191505092915050565b600061250582612beb565b61250f8185612c18565b935061251f818560208601612d61565b80840191505092915050565b6000612538602783612c07565b915061254382612f3e565b604082019050919050565b600061255b601883612c07565b915061256682612f8d565b602082019050919050565b600061257e603283612c07565b915061258982612fb6565b604082019050919050565b60006125a1602583612c07565b91506125ac82613005565b604082019050919050565b60006125c4601c83612c07565b91506125cf82613054565b602082019050919050565b60006125e7602483612c07565b91506125f28261307d565b604082019050919050565b600061260a601983612c07565b9150612615826130cc565b602082019050919050565b600061262d602c83612c07565b9150612638826130f5565b604082019050919050565b6000612650603883612c07565b915061265b82613144565b604082019050919050565b6000612673602a83612c07565b915061267e82613193565b604082019050919050565b6000612696602983612c07565b91506126a1826131e2565b604082019050919050565b60006126b9601e83612c07565b91506126c482613231565b602082019050919050565b60006126dc602083612c07565b91506126e78261325a565b602082019050919050565b60006126ff602c83612c07565b915061270a82613283565b604082019050919050565b6000612722602f83612c07565b915061272d826132d2565b604082019050919050565b6000612745601d83612c07565b915061275082613321565b602082019050919050565b6000612768602183612c07565b91506127738261334a565b604082019050919050565b600061278b601c83612c07565b915061279682613399565b602082019050919050565b60006127ae601e83612c07565b91506127b9826133c2565b602082019050919050565b60006127d1603183612c07565b91506127dc826133eb565b604082019050919050565b6127f081612d48565b82525050565b600061280282856124fa565b915061280e82846124fa565b91508190509392505050565b600060208201905061282f600083018461246a565b92915050565b600060808201905061284a600083018761246a565b612857602083018661246a565b61286460408301856127e7565b81810360608301526128768184612488565b905095945050505050565b60006020820190506128966000830184612479565b92915050565b600060208201905081810360008301526128b681846124c1565b905092915050565b600060208201905081810360008301526128d78161252b565b9050919050565b600060208201905081810360008301526128f78161254e565b9050919050565b6000602082019050818103600083015261291781612571565b9050919050565b6000602082019050818103600083015261293781612594565b9050919050565b60006020820190508181036000830152612957816125b7565b9050919050565b60006020820190508181036000830152612977816125da565b9050919050565b60006020820190508181036000830152612997816125fd565b9050919050565b600060208201905081810360008301526129b781612620565b9050919050565b600060208201905081810360008301526129d781612643565b9050919050565b600060208201905081810360008301526129f781612666565b9050919050565b60006020820190508181036000830152612a1781612689565b9050919050565b60006020820190508181036000830152612a37816126ac565b9050919050565b60006020820190508181036000830152612a57816126cf565b9050919050565b60006020820190508181036000830152612a77816126f2565b9050919050565b60006020820190508181036000830152612a9781612715565b9050919050565b60006020820190508181036000830152612ab781612738565b9050919050565b60006020820190508181036000830152612ad78161275b565b9050919050565b60006020820190508181036000830152612af78161277e565b9050919050565b60006020820190508181036000830152612b17816127a1565b9050919050565b60006020820190508181036000830152612b37816127c4565b9050919050565b6000602082019050612b5360008301846127e7565b92915050565b6000612b63612b74565b9050612b6f8282612dc6565b919050565b6000604051905090565b600067ffffffffffffffff821115612b9957612b98612efe565b5b612ba282612f2d565b9050602081019050919050565b600067ffffffffffffffff821115612bca57612bc9612efe565b5b612bd382612f2d565b9050602081019050919050565b600081519050919050565b600081519050919050565b600082825260208201905092915050565b600082825260208201905092915050565b600081905092915050565b6000612c2e82612d48565b9150612c3983612d48565b9250827fffffffffffffffffffffffffffffffffffffffffffffffffffffffffffffffff03821115612c6e57612c6d612e71565b5b828201905092915050565b6000612c8482612d48565b9150612c8f83612d48565b925082612c9f57612c9e612ea0565b5b828204905092915050565b6000612cb582612d48565b9150612cc083612d48565b925082821015612cd357612cd2612e71565b5b828203905092915050565b6000612ce982612d28565b9050919050565b60008115159050919050565b60007fffffffff0000000000000000000000000000000000000000000000000000000082169050919050565b600073ffffffffffffffffffffffffffffffffffffffff82169050919050565b6000819050919050565b82818337600083830152505050565b60005b83811015612d7f578082015181840152602081019050612d64565b83811115612d8e576000848401525b50505050565b60006002820490506001821680612dac57607f821691505b60208210811415612dc057612dbf612ecf565b5b50919050565b612dcf82612f2d565b810181811067ffffffffffffffff82111715612dee57612ded612efe565b5b80604052505050565b6000612e0282612d48565b91507fffffffffffffffffffffffffffffffffffffffffffffffffffffffffffffffff821415612e3557612e34612e71565b5b600182019050919050565b6000612e4b82612d48565b9150612e5683612d48565b925082612e6657612e65612ea0565b5b828206905092915050565b7f4e487b7100000000000000000000000000000000000000000000000000000000600052601160045260246000fd5b7f4e487b7100000000000000000000000000000000000000000000000000000000600052601260045260246000fd5b7f4e487b7100000000000000000000000000000000000000000000000000000000600052602260045260246000fd5b7f4e487b7100000000000000000000000000000000000000000000000000000000600052604160045260246000fd5b6000601f19601f8301169050919050565b7f596f752063616e27742073616c6520746865205374617220796f7520646f6e2760008201527f74206f776e656400000000000000000000000000000000000000000000000000602082015250565b7f746f6b656e4964206d757374206e6f74206265207a65726f0000000000000000600082015250565b7f4552433732313a207472616e7366657220746f206e6f6e20455243373231526560008201527f63656976657220696d706c656d656e7465720000000000000000000000000000602082015250565b7f4552433732313a207472616e736665722066726f6d20696e636f72726563742060008201527f6f776e6572000000000000000000000000000000000000000000000000000000602082015250565b7f4552433732313a20746f6b656e20616c7265616479206d696e74656400000000600082015250565b7f4552433732313a207472616e7366657220746f20746865207a65726f2061646460008201527f7265737300000000000000000000000000000000000000000000000000000000602082015250565b7f4552433732313a20617070726f766520746f2063616c6c657200000000000000600082015250565b7f4552433732313a206f70657261746f7220717565727920666f72206e6f6e657860008201527f697374656e7420746f6b656e0000000000000000000000000000000000000000602082015250565b7f4552433732313a20617070726f76652063616c6c6572206973206e6f74206f7760008201527f6e6572206e6f7220617070726f76656420666f7220616c6c0000000000000000602082015250565b7f4552433732313a2062616c616e636520717565727920666f7220746865207a6560008201527f726f206164647265737300000000000000000000000000000000000000000000602082015250565b7f4552433732313a206f776e657220717565727920666f72206e6f6e657869737460008201527f656e7420746f6b656e0000000000000000000000000000000000000000000000602082015250565b7f596f752063616e27742065786368616e67652074686520537461722121210000600082015250565b7f4552433732313a206d696e7420746f20746865207a65726f2061646472657373600082015250565b7f4552433732313a20617070726f76656420717565727920666f72206e6f6e657860008201527f697374656e7420746f6b656e0000000000000000000000000000000000000000602082015250565b7f4552433732314d657461646174613a2055524920717565727920666f72206e6f60008201527f6e6578697374656e7420746f6b656e0000000000000000000000000000000000602082015250565b7f596f75206e65656420746f206861766520656e6f756768204574686572000000600082015250565b7f4552433732313a20617070726f76616c20746f2063757272656e74206f776e6560008201527f7200000000000000000000000000000000000000000000000000000000000000602082015250565b7f746f6b656e207072696365206d757374206e6f74206265207a65726f00000000600082015250565b7f54686520537461722073686f756c6420626520757020666f722073616c650000600082015250565b7f4552433732313a207472616e736665722063616c6c6572206973206e6f74206f60008201527f776e6572206e6f7220617070726f766564000000000000000000000000000000602082015250565b61344381612cde565b811461344e57600080fd5b50565b61345a81612cf0565b811461346557600080fd5b50565b61347181612cfc565b811461347c57600080fd5b50565b61348881612d48565b811461349357600080fd5b5056fea264697066735822122082f98f988627bb9436aeee340aa3e03b62dca63773fe6ceeb4eefc68c51dba6264736f6c63430008010033",
  "immutableReferences": {},
  "source": "//SPDX-License-Identifier: UNLICENSED\npragma solidity >=0.4.24;\n\n//Importing openzeppelin-solidity ERC-721 implemented Standard\nimport \"../node_modules/openzeppelin-solidity/contracts/token/ERC721/ERC721.sol\";\nimport \"../node_modules/openzeppelin-solidity/contracts/token/ERC721/IERC721.sol\";\n\n// StarNotary Contract declaration inheritance the ERC721 openzeppelin implementation\ncontract StarNotary is ERC721 {\n\n    string public tokenName = \"Rice For Everyone\";\n    string public symbolName = \"RFE\";\n\n    // Star data\n    struct Star {\n        string name;\n    }\n\n    constructor() ERC721(tokenName, symbolName){\n    }\n\n    // Implement Task 1 Add a name and symbol properties\n    // name: Is a short name to your token\n    // symbol: Is a short string like 'USD' -> 'American Dollar'\n    \n\n    // mapping the Star with the Owner Address\n    mapping(uint256 => Star) public tokenIdToStarInfo;\n    // mapping the TokenId and price\n    mapping(uint256 => uint256) public starsForSale;\n\n    \n    // Create Star using the Struct\n    function createStar(string memory _name, uint256 _tokenId) public { // Passing the name and tokenId as a parameters\n        Star memory newStar = Star(_name); // Star is an struct so we are creating a new Star\n        tokenIdToStarInfo[_tokenId] = newStar; // Creating in memory the Star -> tokenId mapping\n        _mint(msg.sender, _tokenId); // _mint assign the the star with _tokenId to the sender address (ownership)\n    }\n\n    // Putting an Star for sale (Adding the star tokenid into the mapping starsForSale, first verify that the sender is the owner)\n    function putStarUpForSale(uint256 _tokenId, uint256 _price) public {\n        require(_tokenId > 0, \"tokenId must not be zero\");\n        require(_price > 0, \"token price must not be zero\");\n        require(ownerOf(_tokenId) == msg.sender, \"You can't sale the Star you don't owned\");\n        starsForSale[_tokenId] = _price;\n        \n    }\n\n\n    // Function that allows you to convert an address into a payable address\n    function _make_payable(address x) internal pure returns (address payable) {\n        return payable(x);\n    }\n\n    function buyStar(uint256 _tokenId) public  payable {\n        require(starsForSale[_tokenId] > 0, \"The Star should be up for sale\");\n        uint256 starCost = starsForSale[_tokenId];\n        address ownerAddress = ownerOf(_tokenId);\n        require(msg.value > starCost, \"You need to have enough Ether\");\n        transferFrom(ownerAddress, msg.sender, _tokenId); // We can't use _addTokenTo or_removeTokenFrom functions, now we have to use _transferFrom\n        address payable ownerAddressPayable = _make_payable(ownerAddress); // We need to make this conversion to be able to use transfer() function to transfer ethers\n        ownerAddressPayable.transfer(starCost);\n        if(msg.value > starCost) {\n            _make_payable(msg.sender).transfer(msg.value - starCost);\n        }\n        \n    }\n\n    // Implement Task 1 lookUptokenIdToStarInfo\n    function lookUptokenIdToStarInfo (uint _tokenId) public view returns (string memory) {\n        //1. You should return the Star saved in tokenIdToStarInfo mapping\n        return tokenIdToStarInfo[_tokenId].name;\n    }\n\n    // Implement Task 1 Exchange Stars function\n    function exchangeStars(uint256 _tokenId1, uint256 _tokenId2) public {\n        //1. Passing to star tokenId you will need to check if the owner of _tokenId1 or _tokenId2 is the sender\n        require(msg.sender == ownerOf(_tokenId1) || msg.sender == ownerOf(_tokenId2), \"You can't exchange the Star!!!\");\n        //2. You don't have to check for the price of the token (star)\n        //3. Get the owner of the two tokens (ownerOf(_tokenId1), ownerOf(_tokenId2)\n        //4. Use transferFrom function to exchange the tokens.\n        \n        transferFrom(ownerOf(_tokenId1), ownerOf(_tokenId2), _tokenId1);\n        transferFrom(ownerOf(_tokenId2), ownerOf(_tokenId1), _tokenId2);\n        \n    }\n\n    // Implement Task 1 Transfer Stars\n    function transferStar(address _to1, uint256 _tokenId) public {\n        //1. Check if the sender is the ownerOf(_tokenId)\n        require(msg.sender == ownerOf(_tokenId), \"You can't exchange the Star!!!\");\n        //2. Use the transferFrom(from, to, tokenId); function to transfer the Star\n        transferFrom(msg.sender, _to1, _tokenId);\n    }\n\n}\n",
  "sourcePath": "/Volumes/Data/HOC TAP/Blockchain/Decentralized-Star-Notary-Service-Starter-Code-main/contracts/StarNotary.sol",
  "compiler": {
    "name": "solc",
    "version": "0.8.1+commit.df193b15.Emscripten.clang"
  },
  "schemaVersion": "3.4.7",
  "updatedAt": "2022-07-31T21:35:36.584Z",
  "networkType": "ethereum",
  "devdoc": {
    "kind": "dev",
    "methods": {
      "approve(address,uint256)": {
        "details": "See {IERC721-approve}."
      },
      "balanceOf(address)": {
        "details": "See {IERC721-balanceOf}."
      },
      "getApproved(uint256)": {
        "details": "See {IERC721-getApproved}."
      },
      "isApprovedForAll(address,address)": {
        "details": "See {IERC721-isApprovedForAll}."
      },
      "name()": {
        "details": "See {IERC721Metadata-name}."
      },
      "ownerOf(uint256)": {
        "details": "See {IERC721-ownerOf}."
      },
      "safeTransferFrom(address,address,uint256)": {
        "details": "See {IERC721-safeTransferFrom}."
      },
      "safeTransferFrom(address,address,uint256,bytes)": {
        "details": "See {IERC721-safeTransferFrom}."
      },
      "setApprovalForAll(address,bool)": {
        "details": "See {IERC721-setApprovalForAll}."
      },
      "supportsInterface(bytes4)": {
        "details": "See {IERC165-supportsInterface}."
      },
      "symbol()": {
        "details": "See {IERC721Metadata-symbol}."
      },
      "tokenURI(uint256)": {
        "details": "See {IERC721Metadata-tokenURI}."
      },
      "transferFrom(address,address,uint256)": {
        "details": "See {IERC721-transferFrom}."
      }
    },
    "version": 1
  },
  "userdoc": {
    "kind": "user",
    "methods": {},
    "version": 1
  }
}